{
  "transactions": [
    {
      "hash": "0xe7fd01a9ec4b89fc6bbada5c7cde0c59f1f38d002bf3d1691edc1afd702e65f8",
      "transactionType": "CALL",
      "contractName": "LinkToken",
      "contractAddress": "0x779877A7B0D9E8603169DdbD7836e478b4624789",
      "function": "transferAndCall(address,uint256,bytes):(bool)",
      "arguments": [
        "0x8103B0A8A00be2DDC778e6e7eaa21791Cd364625",
        "3000000000000000000",
        "0x0000000000000000000000000000000000000000000000000000000000000fd4"
      ],
      "transaction": {
        "type": "0x02",
        "from": "0xc76f962e24f4345301296bf111529047ec3ca96e",
        "to": "0x779877a7b0d9e8603169ddbd7836e478b4624789",
        "gas": "0x13fbe",
        "value": "0x0",
        "data": "0x4000aea00000000000000000000000008103b0a8a00be2ddc778e6e7eaa21791cd36462500000000000000000000000000000000000000000000000029a2241af62c0000000000000000000000000000000000000000000000000000000000000000006000000000000000000000000000000000000000000000000000000000000000200000000000000000000000000000000000000000000000000000000000000fd4",
        "nonce": "0x3c",
        "accessList": []
      },
      "additionalContracts": [],
      "isFixedGasLimit": false
    }
  ],
  "receipts": [
    {
      "transactionHash": "0xe7fd01a9ec4b89fc6bbada5c7cde0c59f1f38d002bf3d1691edc1afd702e65f8",
      "transactionIndex": "0x0",
      "blockHash": "0x71a815856b02781712fb89d7842b1ddbf02d91bdda08e3165c20254a1340ff09",
      "blockNumber": "0x3cf0c4",
      "from": "0xC76F962e24F4345301296Bf111529047ec3cA96E",
      "to": "0x779877A7B0D9E8603169DdbD7836e478b4624789",
      "cumulativeGasUsed": "0xe77e",
      "gasUsed": "0xe77e",
      "contractAddress": null,
      "logs": [
        {
          "address": "0x779877A7B0D9E8603169DdbD7836e478b4624789",
          "topics": [
            "0xddf252ad1be2c89b69c2b068fc378daa952ba7f163c4a11628f55a4df523b3ef",
            "0x000000000000000000000000c76f962e24f4345301296bf111529047ec3ca96e",
            "0x0000000000000000000000008103b0a8a00be2ddc778e6e7eaa21791cd364625"
          ],
          "data": "0x00000000000000000000000000000000000000000000000029a2241af62c0000",
          "blockHash": "0x71a815856b02781712fb89d7842b1ddbf02d91bdda08e3165c20254a1340ff09",
          "blockNumber": "0x3cf0c4",
          "transactionHash": "0xe7fd01a9ec4b89fc6bbada5c7cde0c59f1f38d002bf3d1691edc1afd702e65f8",
          "transactionIndex": "0x0",
          "logIndex": "0x0",
          "removed": false
        },
        {
          "address": "0x779877A7B0D9E8603169DdbD7836e478b4624789",
          "topics": [
            "0xe19260aff97b920c7df27010903aeb9c8d2be5d310a2c67824cf3f15396e4c16",
            "0x000000000000000000000000c76f962e24f4345301296bf111529047ec3ca96e",
            "0x0000000000000000000000008103b0a8a00be2ddc778e6e7eaa21791cd364625"
          ],
          "data": "0x00000000000000000000000000000000000000000000000029a2241af62c0000000000000000000000000000000000000000000000000000000000000000004000000000000000000000000000000000000000000000000000000000000000200000000000000000000000000000000000000000000000000000000000000fd4",
          "blockHash": "0x71a815856b02781712fb89d7842b1ddbf02d91bdda08e3165c20254a1340ff09",
          "blockNumber": "0x3cf0c4",
          "transactionHash": "0xe7fd01a9ec4b89fc6bbada5c7cde0c59f1f38d002bf3d1691edc1afd702e65f8",
          "transactionIndex": "0x0",
          "logIndex": "0x1",
          "removed": false
        },
        {
          "address": "0x8103B0A8A00be2DDC778e6e7eaa21791Cd364625",
          "topics": [
            "0xd39ec07f4e209f627a4c427971473820dc129761ba28de8906bd56f57101d4f8",
            "0x0000000000000000000000000000000000000000000000000000000000000fd4"
          ],
          "data": "0x0000000000000000000000000000000000000000000000015af1d78b58c400000000000000000000000000000000000000000000000000018493fba64ef00000",
          "blockHash": "0x71a815856b02781712fb89d7842b1ddbf02d91bdda08e3165c20254a1340ff09",
          "blockNumber": "0x3cf0c4",
          "transactionHash": "0xe7fd01a9ec4b89fc6bbada5c7cde0c59f1f38d002bf3d1691edc1afd702e65f8",
          "transactionIndex": "0x0",
          "logIndex": "0x2",
          "removed": false
        }
      ],
      "status": "0x1",
      "logsBloom": "0x0000001400000000000000100000000000000000000000020000000002000000000000000000800000000000000000000000000000000000000000000000000000000000000000000000000800000000000000000000000000002000000000020000000000000000000000000000000000000000400000000000001000000000000000000c000020000000000000810010000020000000000000000000000000000000000000000000000000000000000000000800000000000400000000000000000002000000000000000000000000000000000000000100000000000000000000000000000000000000000000000000000000000002000000000000000000",
      "type": "0x2",
      "effectiveGasPrice": "0xb3165e0c"
    }
  ],
  "libraries": [],
  "pending": [],
  "returns": {},
  "timestamp": 1690727198,
  "chain": 11155111,
  "multi": false,
  "commit": "770f9b7"
}